{
  "_format": "hh-sol-artifact-1",
  "contractName": "Community",
  "sourceName": "contracts/Community.sol",
  "abi": [
    {
      "inputs": [
        {
          "internalType": "string",
          "name": "_name",
          "type": "string"
        },
        {
          "internalType": "string",
          "name": "_address",
          "type": "string"
        },
        {
          "internalType": "string",
          "name": "_president",
          "type": "string"
        },
        {
          "internalType": "string",
          "name": "_admin",
          "type": "string"
        },
        {
          "internalType": "uint256",
          "name": "_creationDate",
          "type": "uint256"
        }
      ],
      "stateMutability": "nonpayable",
      "type": "constructor"
    },
    {
      "inputs": [
        {
          "internalType": "address",
          "name": "owner",
          "type": "address"
        }
      ],
      "name": "OwnableInvalidOwner",
      "type": "error"
    },
    {
      "inputs": [
        {
          "internalType": "address",
          "name": "account",
          "type": "address"
        }
      ],
      "name": "OwnableUnauthorizedAccount",
      "type": "error"
    },
    {
      "anonymous": false,
      "inputs": [
        {
          "indexed": true,
          "internalType": "address",
          "name": "previousOwner",
          "type": "address"
        },
        {
          "indexed": true,
          "internalType": "address",
          "name": "newOwner",
          "type": "address"
        }
      ],
      "name": "OwnershipTransferred",
      "type": "event"
    },
    {
      "anonymous": false,
      "inputs": [
        {
          "indexed": false,
          "internalType": "uint256",
          "name": "proposalId",
          "type": "uint256"
        },
        {
          "indexed": false,
          "internalType": "string",
          "name": "description",
          "type": "string"
        }
      ],
      "name": "ProposalCreated",
      "type": "event"
    },
    {
      "anonymous": false,
      "inputs": [
        {
          "indexed": false,
          "internalType": "uint256",
          "name": "proposalId",
          "type": "uint256"
        }
      ],
      "name": "ProposalExecuted",
      "type": "event"
    },
    {
      "anonymous": false,
      "inputs": [
        {
          "indexed": false,
          "internalType": "uint256",
          "name": "proposalId",
          "type": "uint256"
        },
        {
          "indexed": false,
          "internalType": "address",
          "name": "voter",
          "type": "address"
        },
        {
          "indexed": false,
          "internalType": "uint256",
          "name": "votes",
          "type": "uint256"
        }
      ],
      "name": "VoteReceived",
      "type": "event"
    },
    {
      "inputs": [],
      "name": "adminName",
      "outputs": [
        {
          "internalType": "string",
          "name": "",
          "type": "string"
        }
      ],
      "stateMutability": "view",
      "type": "function"
    },
    {
      "inputs": [],
      "name": "communityAddress",
      "outputs": [
        {
          "internalType": "string",
          "name": "",
          "type": "string"
        }
      ],
      "stateMutability": "view",
      "type": "function"
    },
    {
      "inputs": [],
      "name": "communityName",
      "outputs": [
        {
          "internalType": "string",
          "name": "",
          "type": "string"
        }
      ],
      "stateMutability": "view",
      "type": "function"
    },
    {
      "inputs": [
        {
          "internalType": "string",
          "name": "description",
          "type": "string"
        }
      ],
      "name": "createProposal",
      "outputs": [],
      "stateMutability": "nonpayable",
      "type": "function"
    },
    {
      "inputs": [],
      "name": "creationDate",
      "outputs": [
        {
          "internalType": "uint256",
          "name": "",
          "type": "uint256"
        }
      ],
      "stateMutability": "view",
      "type": "function"
    },
    {
      "inputs": [
        {
          "internalType": "uint256",
          "name": "proposalId",
          "type": "uint256"
        }
      ],
      "name": "executeProposal",
      "outputs": [],
      "stateMutability": "nonpayable",
      "type": "function"
    },
    {
      "inputs": [
        {
          "internalType": "uint256",
          "name": "",
          "type": "uint256"
        },
        {
          "internalType": "address",
          "name": "",
          "type": "address"
        }
      ],
      "name": "hasVoted",
      "outputs": [
        {
          "internalType": "bool",
          "name": "",
          "type": "bool"
        }
      ],
      "stateMutability": "view",
      "type": "function"
    },
    {
      "inputs": [
        {
          "internalType": "address",
          "name": "",
          "type": "address"
        }
      ],
      "name": "memberTokens",
      "outputs": [
        {
          "internalType": "uint256",
          "name": "",
          "type": "uint256"
        }
      ],
      "stateMutability": "view",
      "type": "function"
    },
    {
      "inputs": [],
      "name": "owner",
      "outputs": [
        {
          "internalType": "address",
          "name": "",
          "type": "address"
        }
      ],
      "stateMutability": "view",
      "type": "function"
    },
    {
      "inputs": [],
      "name": "presidentName",
      "outputs": [
        {
          "internalType": "string",
          "name": "",
          "type": "string"
        }
      ],
      "stateMutability": "view",
      "type": "function"
    },
    {
      "inputs": [
        {
          "internalType": "uint256",
          "name": "",
          "type": "uint256"
        }
      ],
      "name": "proposals",
      "outputs": [
        {
          "internalType": "string",
          "name": "description",
          "type": "string"
        },
        {
          "internalType": "uint256",
          "name": "voteCount",
          "type": "uint256"
        },
        {
          "internalType": "bool",
          "name": "executed",
          "type": "bool"
        }
      ],
      "stateMutability": "view",
      "type": "function"
    },
    {
      "inputs": [
        {
          "internalType": "address",
          "name": "member",
          "type": "address"
        },
        {
          "internalType": "uint256",
          "name": "tokens",
          "type": "uint256"
        }
      ],
      "name": "registerMember",
      "outputs": [],
      "stateMutability": "nonpayable",
      "type": "function"
    },
    {
      "inputs": [],
      "name": "renounceOwnership",
      "outputs": [],
      "stateMutability": "nonpayable",
      "type": "function"
    },
    {
      "inputs": [
        {
          "internalType": "address",
          "name": "newOwner",
          "type": "address"
        }
      ],
      "name": "transferOwnership",
      "outputs": [],
      "stateMutability": "nonpayable",
      "type": "function"
    },
    {
      "inputs": [
        {
          "internalType": "uint256",
          "name": "proposalId",
          "type": "uint256"
        },
        {
          "internalType": "uint256",
          "name": "votes",
          "type": "uint256"
        }
      ],
      "name": "voteOnProposal",
      "outputs": [],
      "stateMutability": "nonpayable",
      "type": "function"
    }
  ],
  "bytecode": "0x60806040523480156200001157600080fd5b5060405162000ffc38038062000ffc8339810160408190526200003491620001c6565b33806200005b57604051631e4fbdf760e01b81526000600482015260240160405180910390fd5b6200006681620000b1565b50600162000075868262000318565b50600262000084858262000318565b50600362000093848262000318565b506004620000a2838262000318565b5060055550620003e492505050565b600080546001600160a01b038381166001600160a01b0319831681178455604051919092169283917f8be0079c531659141344cd1fd0a4f28419497f9722a3daafe3b4186f6b6457e09190a35050565b634e487b7160e01b600052604160045260246000fd5b600082601f8301126200012957600080fd5b81516001600160401b038082111562000146576200014662000101565b604051601f8301601f19908116603f0116810190828211818310171562000171576200017162000101565b816040528381526020925086838588010111156200018e57600080fd5b600091505b83821015620001b2578582018301518183018401529082019062000193565b600093810190920192909252949350505050565b600080600080600060a08688031215620001df57600080fd5b85516001600160401b0380821115620001f757600080fd5b6200020589838a0162000117565b965060208801519150808211156200021c57600080fd5b6200022a89838a0162000117565b955060408801519150808211156200024157600080fd5b6200024f89838a0162000117565b945060608801519150808211156200026657600080fd5b50620002758882890162000117565b925050608086015190509295509295909350565b600181811c908216806200029e57607f821691505b602082108103620002bf57634e487b7160e01b600052602260045260246000fd5b50919050565b601f8211156200031357600081815260208120601f850160051c81016020861015620002ee5750805b601f850160051c820191505b818110156200030f57828155600101620002fa565b5050505b505050565b81516001600160401b0381111562000334576200033462000101565b6200034c8162000345845462000289565b84620002c5565b602080601f8311600181146200038457600084156200036b5750858301515b600019600386901b1c1916600185901b1785556200030f565b600085815260208120601f198616915b82811015620003b55788860151825594840194600190910190840162000394565b5085821015620003d45787850151600019600388901b60f8161c191681555b5050505050600190811b01905550565b610c0880620003f46000396000f3fe608060405234801561001057600080fd5b50600436106100f55760003560e01c806386e476dd11610097578063c6d572ae11610066578063c6d572ae14610215578063d0590fec1461021d578063d2a7ebd114610225578063f2fde38b1461023857600080fd5b806386e476dd146101bd5780638da5cb5b146101d2578063a5c7900e146101ed578063a8a23e391461020d57600080fd5b806343859632116100d3578063438596321461015157806349c2a1a61461018f578063556f6cc0146101a2578063715018a6146101b557600080fd5b8063013cf08b146100fa57806305b34410146101255780630d61b5191461013c575b600080fd5b61010d6101083660046107f7565b61024b565b60405161011c93929190610856565b60405180910390f35b61012e60055481565b60405190815260200161011c565b61014f61014a3660046107f7565b610311565b005b61017f61015f36600461089c565b600860209081526000928352604080842090915290825290205460ff1681565b604051901515815260200161011c565b61014f61019d3660046108de565b610403565b61014f6101b036600461098f565b6104e0565b61014f61064f565b6101c5610663565b60405161011c91906109b1565b6000546040516001600160a01b03909116815260200161011c565b61012e6101fb3660046109cb565b60066020526000908152604090205481565b6101c56106f1565b6101c56106fe565b6101c561070b565b61014f6102333660046109e6565b610718565b61014f6102463660046109cb565b61073c565b6007818154811061025b57600080fd5b906000526020600020906003020160009150905080600001805461027e90610a10565b80601f01602080910402602001604051908101604052809291908181526020018280546102aa90610a10565b80156102f75780601f106102cc576101008083540402835291602001916102f7565b820191906000526020600020905b8154815290600101906020018083116102da57829003601f168201915b50505050600183015460029093015491929160ff16905083565b61031961077a565b6007818154811061032c5761032c610a4a565b600091825260209091206002600390920201015460ff16156103955760405162461bcd60e51b815260206004820152601960248201527f50726f706f73616c20616c72656164792065786563757465640000000000000060448201526064015b60405180910390fd5b6001600782815481106103aa576103aa610a4a565b600091825260209182902060039190910201600201805460ff1916921515929092179091556040518281527f712ae1383f79ac853f8d882153778e0260ef8f03b504e2866e0593e04d2b291f910160405180910390a150565b61040b61077a565b60408051606081018252828152600060208201819052918101829052600780546001810182559252805190916003027fa66cc928b5edb82af9bd49922954155ab7b0942694bea4ce44661d9a8736c688019081906104699082610aaf565b5060208201516001828101919091556040909201516002909101805460ff19169115159190911790556007546000916104a191610b85565b90507f9c770c289ab5bf7e57cb1d23c8ceae993aea46eb64847072fd3d78ca60d3e43281836040516104d4929190610b9e565b60405180910390a15050565b3360009081526006602052604090205481111561053f5760405162461bcd60e51b815260206004820152601960248201527f4e6f7420656e6f75676820746f6b656e7320746f20766f746500000000000000604482015260640161038c565b600082815260086020908152604080832033845290915290205460ff16156105995760405162461bcd60e51b815260206004820152600d60248201526c105b1c9958591e481d9bdd1959609a1b604482015260640161038c565b80600783815481106105ad576105ad610a4a565b906000526020600020906003020160010160008282546105cd9190610bbf565b909155505060008281526008602090815260408083203384528252808320805460ff1916600117905560069091528120805483929061060d908490610b85565b9091555050604080518381523360208201529081018290527f2dc7503cab0c8e53a50e982257f234b59eb2aff2d39dea8763e479a48f3bb22e906060016104d4565b61065761077a565b61066160006107a7565b565b6002805461067090610a10565b80601f016020809104026020016040519081016040528092919081815260200182805461069c90610a10565b80156106e95780601f106106be576101008083540402835291602001916106e9565b820191906000526020600020905b8154815290600101906020018083116106cc57829003601f168201915b505050505081565b6004805461067090610a10565b6001805461067090610a10565b6003805461067090610a10565b61072061077a565b6001600160a01b03909116600090815260066020526040902055565b61074461077a565b6001600160a01b03811661076e57604051631e4fbdf760e01b81526000600482015260240161038c565b610777816107a7565b50565b6000546001600160a01b031633146106615760405163118cdaa760e01b815233600482015260240161038c565b600080546001600160a01b038381166001600160a01b0319831681178455604051919092169283917f8be0079c531659141344cd1fd0a4f28419497f9722a3daafe3b4186f6b6457e09190a35050565b60006020828403121561080957600080fd5b5035919050565b6000815180845260005b818110156108365760208185018101518683018201520161081a565b506000602082860101526020601f19601f83011685010191505092915050565b6060815260006108696060830186610810565b602083019490945250901515604090910152919050565b80356001600160a01b038116811461089757600080fd5b919050565b600080604083850312156108af57600080fd5b823591506108bf60208401610880565b90509250929050565b634e487b7160e01b600052604160045260246000fd5b6000602082840312156108f057600080fd5b813567ffffffffffffffff8082111561090857600080fd5b818401915084601f83011261091c57600080fd5b81358181111561092e5761092e6108c8565b604051601f8201601f19908116603f01168101908382118183101715610956576109566108c8565b8160405282815287602084870101111561096f57600080fd5b826020860160208301376000928101602001929092525095945050505050565b600080604083850312156109a257600080fd5b50508035926020909101359150565b6020815260006109c46020830184610810565b9392505050565b6000602082840312156109dd57600080fd5b6109c482610880565b600080604083850312156109f957600080fd5b610a0283610880565b946020939093013593505050565b600181811c90821680610a2457607f821691505b602082108103610a4457634e487b7160e01b600052602260045260246000fd5b50919050565b634e487b7160e01b600052603260045260246000fd5b601f821115610aaa57600081815260208120601f850160051c81016020861015610a875750805b601f850160051c820191505b81811015610aa657828155600101610a93565b5050505b505050565b815167ffffffffffffffff811115610ac957610ac96108c8565b610add81610ad78454610a10565b84610a60565b602080601f831160018114610b125760008415610afa5750858301515b600019600386901b1c1916600185901b178555610aa6565b600085815260208120601f198616915b82811015610b4157888601518255948401946001909101908401610b22565b5085821015610b5f5787850151600019600388901b60f8161c191681555b5050505050600190811b01905550565b634e487b7160e01b600052601160045260246000fd5b81810381811115610b9857610b98610b6f565b92915050565b828152604060208201526000610bb76040830184610810565b949350505050565b80820180821115610b9857610b98610b6f56fea2646970667358221220ded17db0e7e28a91076b5e266884bdc741d3a977c89f941b3c13f47e1d5fdec664736f6c63430008140033",
  "linkReferences": {},
  "deployedLinkReferences": {}
}